S011000074696D65725F70776D2E737265633F
S11300000C9434000C943E000C943E000C943E007E
S11300100C943E000C943E000C943E000C943E0064
S11300200C943E000C943E000C943E000C943E0054
S11300300C943E000C943E000C943E000C943E0044
S11300400C943E000C943E000C943E000C943E0034
S11300500C943E000C943E000C943E000C943E0024
S11300600C943E000C943E0011241FBECFEFD8E048
S1130070DEBFCDBF0E9440000C9476000C940000BB
S11300808AB180648AB984B5816084BD84B58D7F6A
S113009084BD84B5806884BD85B58F7B85BD85B5F9
S11300A08B7F85BD85B58E7F85BD85B5826085BD19
S11300B080E090E008C087BDEFE3FCE93197F1F7F9
S11300C000C0000001968130F1E09F07A4F380E0B6
S11300D091E008C087BDEFE3FCE93197F1F700C078
S11300E00000019718161906ACF3E2CFF894FFCF7D
S9030000FC
