S0140000424D3238305F53454E534F522E73726563AE
S11300000C9434000C9449000C9449000C9449005D
S11300100C9449000C9449000C9449000C94490038
S11300200C9449000C9449000C9449000C94490028
S11300300C9449000C9449000C9449000C94490018
S11300400C9449000C9449000C9449000C94490008
S11300500C9449000C9449000C9449000C944900F8
S11300600C9449000C94490011241FBECFEFD8E032
S1130070DEBFCDBF11E0A0E0B1E0EEE1F3E002C0ED
S113008005900D92AE32B107D9F70E9458000C9436
S11300908D010C94000084B18C6284B984B18F7E8C
S11300A084B98CB581658CBD8CB5817F8CBD089578
S11300B00E944B000E94C80085B18B7F85B980EDFA
S11300C08EBD0DB407FEFDCF8EB51EBC0DB407FE6C
S11300D0FDCFCEB585B1846085B980E091E00E9402
S11300E0DE008C2F0E94EB0085B18B7F85B984E7FD
S11300F08EBD0DB407FEFDCF8EB587E28EBD0DB467
S113010007FEFDCF8EB585B1846085B985B18B7F3F
S113011085B98AEF8EBD0DB407FEFDCF8EB51EBC2A
S11301200DB407FEFDCF8EB51EBC0DB407FEFDCF8A
S1130130CEB51EBC0DB407FEFDCFDEB58BE091E05D
S11301400E94DE008C2F90E0A0E0B0E0880F991FA1
S1130150AA1FBB1F880F991FAA1FBB1F880F991FB7
S1130160AA1FBB1F880F991FAA1FBB1FD295DF7040
S11301708D2B0E9428012FEF8BE792E921508040BC
S11301809040E1F700C0000085B1846085B994CF48
S11301901092C50087E68093C400E2ECF0E0808111
S11301A0866080838081877F808380818F7C808349
S11301B0E1ECF0E08081886080830895FC0107C051
S11301C08093C6009091C00095FFFCCF319680814A
S11301D08111F6CF0895CF93DF93CDB7DEB766973D
S11301E00FB6F894DEBF0FBECDBF91E1EDE1F1E0B3
S11301F0DE01119601900D929A95E1F7982F929550
S11302009F70E1E0F0E0EC0FFD1FE90FF11D90811C
S11302109A8B8F70E1E0F0E0EC0FFD1FE80FF11D09
S113022080818B8B8DE08C8B8AE08D8B1E8A8AE19A
S113023091E00E94DE00CE0142960E94DE006696A6
S11302400FB6F894DEBF0FBECDBFDF91CF910895F6
S1130250CF93DF9300D000D01F92CDB7DEB78436A2
S113026050F099E2899F912D112492959F70905D91
S1130270998321E001C020E08A30E0F0E1E0F0E081
S1130280EC0FFD1FE20FF11D9DEC899F312D112410
S1130290369536953695399F912D112496959695D8
S11302A09695990F492F440F440F940F391B305DD5
S11302B030832F5F41E0420FE1E0F0E0EC0FFD1FDF
S11302C0E20FF11D9DEC899F912D11249695969531
S11302D09695990F392F330F330F930F891B805D38
S11302E080832E5FE1E0F0E0EC0FFD1FE40FF11DD1
S11302F08AE08083E1E0F0E0EC0FFD1FE20FF11DE6
S11303001082CE0101960E94DE000F900F900F9094
S11103100F900F90DF91CF910895F894FFCFD6
S113031E43686970204944203A200054656D706525
S113032E726174757265203A200030580030313293
S111033E33343536373839414243444546009E
S9030000FC
