S010000044435F4D4F544F522E737265639D
S11300000C9434000C943E000C943E000C943E007E
S11300100C943E000C943E000C943E000C943E0064
S11300200C943E000C943E000C943E000C943E0054
S11300300C943E000C943E000C943E000C943E0044
S11300400C943E000C943E000C943E000C943E0034
S11300500C943E000C943E000C943E000C943E0024
S11300600C943E000C943E0011241FBECFEFD8E048
S1130070DEBFCDBF0E9440000C9480000C940000B1
S11300808AB18C608AB98BB184608BB98BB1877F5C
S11300908BB92FEF83E294EF215080409040E1F739
S11300A000C000008BB18B7F8BB98BB1877F8BB97C
S11300B02FEF8BE792E9215080409040E1F700C098
S11300C000008BB184708BB98BB188608BB92FEF32
S11300D083E294EF215080409040E1F700C000009B
S11300E08BB184608BB98BB188608BB92FEF8BE7B0
S11300F092E9215080409040E1F700C00000C3CF56
S1070100F894FFCF9D
S9030000FC
