S0170000696E7465726E616C5F70756C6C75702E73726563AF
S11300000C9434000C943E000C943E000C943E007E
S11300100C943E000C943E000C943E000C943E0064
S11300200C943E000C943E000C943E000C943E0054
S11300300C943E000C943E000C943E000C943E0044
S11300400C943E000C943E000C943E000C943E0034
S11300500C943E000C943E000C943E000C943E0024
S11300600C943E000C943E0011241FBECFEFD8E048
S1130070DEBFCDBF0E9440000C9453000C940000DE
S11300808AB18B7F8AB98BB184608BB984B1806269
S113009084B94A9904C085B1806285B9FACF85B123
S10D00A08F7D85B9F6CFF894FFCFE9
S9030000FC
