S018000074726166666963776974686D6F746F722E7372656340
S11300000C9434000C943E000C943E000C943E007E
S11300100C943E000C943E000C943E000C943E0064
S11300200C943E000C943E000C943E000C943E0054
S11300300C943E000C943E000C943E000C943E0044
S11300400C943E000C943E000C943E000C943E0034
S11300500C943E000C943E000C943E000C943E0024
S11300600C943E000C943E0011241FBECFEFD8E048
S1130070DEBFCDBF0E947D000C94BA000C9400003A
S113008085B1817F85B908950E94400085B188605B
S113009085B908950E94440085B1806185B985B110
S11300A08F7D85B92FEF8BE792E9215080409040F6
S11300B0E1F700C0000085B18F7E85B985B180620B
S11300C085B92FEF8BE792E9215080409040E1F70A
S11300D000C0000085B18F7E85B985B18F7D85B95B
S11300E008950E94400085B1826085B908950E94F8
S11300F0400085B1846085B908958AB18D7F8AB93D
S11301008BB182608BB984B18E6384B9499905C07F
S11301100E9444000E944A00F9CF0E9444002FEF3D
S113012083E294EF215080409040E1F700C000004A
S11301300E9477002FEF87EA91E62150804090409B
S1130140E1F700C000000E9471002FEF83E294EFFA
S1130150215080409040E1F700C000000E947700E9
S11301602FEF87EA91E6215080409040E1F700C0EC
S10B01700000CCCFF894FFCF8E
S9030000FC
