S013000073776974685F6D6F746F722E7372656352
S11300000C9434000C943E000C943E000C943E007E
S11300100C943E000C943E000C943E000C943E0064
S11300200C943E000C943E000C943E000C943E0054
S11300300C943E000C943E000C943E000C943E0044
S11300400C943E000C943E000C943E000C943E0034
S11300500C943E000C943E000C943E000C943E0024
S11300600C943E000C943E0011241FBECFEFD8E048
S1130070DEBFCDBF0E9440000C945F000C940000D2
S11300808AB18C608AB984B18F7C84B91D9B07C006
S11300908BB184608BB98BB1877F8BB9F7CF1C9BF5
S11300A007C08BB18B7F8BB98BB188608BB9EECFD6
S11300B08BB18B7F8BB98BB1877F8BB9E7CFF894EA
S10500C0FFCF6C
S9030000FC
