S0140000747261666669636C696768742E7372656319
S11300000C9434000C943E000C943E000C943E007E
S11300100C943E000C943E000C943E000C943E0064
S11300200C943E000C943E000C943E000C943E0054
S11300300C943E000C943E000C943E000C943E0044
S11300400C943E000C943E000C943E000C943E0034
S11300500C943E000C943E000C943E000C943E0024
S11300600C943E000C943E0011241FBECFEFD8E048
S1130070DEBFCDBF0E9440000C947A000C940000B7
S11300808AB18C618AB98BB184608BB98BB1877F5B
S11300908BB98BB18F7E8BB92FEF8BE792E921500F
S11300A080409040E1F700C000008BB18B7F8BB99A
S11300B08BB188608BB98BB18F7E8BB92FEF83EDB9
S11300C090E3215080409040E1F700C000008BB1E4
S11300D08B7F8BB98BB1877F8BB98BB180618BB9E7
S11300E02FEF83E294EF215080409040E1F700C06D
S10B00F00000C9CFF894FFCF12
S9030000FC
